{
  "_format": "hh-sol-artifact-1",
  "contractName": "Payroll",
  "sourceName": "contracts/Payroll.sol",
  "abi": [
    {
      "inputs": [
        {
          "internalType": "address",
          "name": "tokenAddress",
          "type": "address"
        }
      ],
      "stateMutability": "nonpayable",
      "type": "constructor"
    },
    {
      "anonymous": false,
      "inputs": [
        {
          "indexed": false,
          "internalType": "uint256",
          "name": "id",
          "type": "uint256"
        },
        {
          "indexed": false,
          "internalType": "address",
          "name": "employeeWalletAddress",
          "type": "address"
        },
        {
          "indexed": false,
          "internalType": "string",
          "name": "name",
          "type": "string"
        },
        {
          "indexed": false,
          "internalType": "string",
          "name": "role",
          "type": "string"
        },
        {
          "indexed": false,
          "internalType": "uint256",
          "name": "salary",
          "type": "uint256"
        },
        {
          "indexed": false,
          "internalType": "uint256",
          "name": "lastPayday",
          "type": "uint256"
        }
      ],
      "name": "LogEmployeeInfo",
      "type": "event"
    },
    {
      "anonymous": false,
      "inputs": [
        {
          "indexed": false,
          "internalType": "uint256",
          "name": "_payout",
          "type": "uint256"
        }
      ],
      "name": "LogEmployeePayday",
      "type": "event"
    },
    {
      "anonymous": false,
      "inputs": [
        {
          "indexed": false,
          "internalType": "uint256",
          "name": "_index",
          "type": "uint256"
        },
        {
          "indexed": false,
          "internalType": "uint256",
          "name": "_salary",
          "type": "uint256"
        }
      ],
      "name": "LogEmployeeUpdate",
      "type": "event"
    },
    {
      "inputs": [
        {
          "internalType": "address payable",
          "name": "_employeeAddress",
          "type": "address"
        },
        {
          "internalType": "string",
          "name": "_name",
          "type": "string"
        },
        {
          "internalType": "string",
          "name": "_role",
          "type": "string"
        },
        {
          "internalType": "uint256",
          "name": "_salary",
          "type": "uint256"
        }
      ],
      "name": "addEmployee",
      "outputs": [],
      "stateMutability": "nonpayable",
      "type": "function"
    },
    {
      "inputs": [],
      "name": "employeeId",
      "outputs": [
        {
          "internalType": "uint256",
          "name": "_value",
          "type": "uint256"
        }
      ],
      "stateMutability": "view",
      "type": "function"
    },
    {
      "inputs": [
        {
          "internalType": "uint256",
          "name": "",
          "type": "uint256"
        }
      ],
      "name": "employeeList",
      "outputs": [
        {
          "internalType": "uint256",
          "name": "id",
          "type": "uint256"
        },
        {
          "internalType": "address payable",
          "name": "employeeWalletAddress",
          "type": "address"
        },
        {
          "internalType": "string",
          "name": "name",
          "type": "string"
        },
        {
          "internalType": "string",
          "name": "role",
          "type": "string"
        },
        {
          "internalType": "uint256",
          "name": "salary",
          "type": "uint256"
        },
        {
          "internalType": "uint256",
          "name": "lastPayday",
          "type": "uint256"
        },
        {
          "internalType": "uint256",
          "name": "tokenBal",
          "type": "uint256"
        }
      ],
      "stateMutability": "view",
      "type": "function"
    },
    {
      "inputs": [
        {
          "internalType": "uint256",
          "name": "_index",
          "type": "uint256"
        }
      ],
      "name": "employeePayDay",
      "outputs": [],
      "stateMutability": "nonpayable",
      "type": "function"
    },
    {
      "inputs": [],
      "name": "getEmployeeCount",
      "outputs": [
        {
          "internalType": "uint256",
          "name": "",
          "type": "uint256"
        }
      ],
      "stateMutability": "view",
      "type": "function"
    },
    {
      "inputs": [
        {
          "internalType": "uint256",
          "name": "index",
          "type": "uint256"
        }
      ],
      "name": "getEmployeeInfo",
      "outputs": [
        {
          "internalType": "uint256",
          "name": "id",
          "type": "uint256"
        },
        {
          "internalType": "address",
          "name": "employeeWalletAddress",
          "type": "address"
        },
        {
          "internalType": "string",
          "name": "name",
          "type": "string"
        },
        {
          "internalType": "string",
          "name": "role",
          "type": "string"
        },
        {
          "internalType": "uint256",
          "name": "salary",
          "type": "uint256"
        },
        {
          "internalType": "uint256",
          "name": "lastPayday",
          "type": "uint256"
        }
      ],
      "stateMutability": "view",
      "type": "function"
    },
    {
      "inputs": [],
      "name": "getEmployees",
      "outputs": [
        {
          "components": [
            {
              "internalType": "uint256",
              "name": "id",
              "type": "uint256"
            },
            {
              "internalType": "address payable",
              "name": "employeeWalletAddress",
              "type": "address"
            },
            {
              "internalType": "string",
              "name": "name",
              "type": "string"
            },
            {
              "internalType": "string",
              "name": "role",
              "type": "string"
            },
            {
              "internalType": "uint256",
              "name": "salary",
              "type": "uint256"
            },
            {
              "internalType": "uint256",
              "name": "lastPayday",
              "type": "uint256"
            },
            {
              "internalType": "uint256",
              "name": "tokenBal",
              "type": "uint256"
            }
          ],
          "internalType": "struct Payroll.EmployeeInfo[]",
          "name": "",
          "type": "tuple[]"
        }
      ],
      "stateMutability": "view",
      "type": "function"
    },
    {
      "inputs": [
        {
          "internalType": "address",
          "name": "",
          "type": "address"
        }
      ],
      "name": "isExist",
      "outputs": [
        {
          "internalType": "bool",
          "name": "",
          "type": "bool"
        }
      ],
      "stateMutability": "view",
      "type": "function"
    },
    {
      "inputs": [],
      "name": "payEmployees",
      "outputs": [],
      "stateMutability": "payable",
      "type": "function"
    },
    {
      "inputs": [
        {
          "internalType": "address",
          "name": "_employeeAddress",
          "type": "address"
        }
      ],
      "name": "removeEmployee",
      "outputs": [],
      "stateMutability": "nonpayable",
      "type": "function"
    },
    {
      "inputs": [],
      "name": "removeEmployees",
      "outputs": [],
      "stateMutability": "nonpayable",
      "type": "function"
    },
    {
      "inputs": [
        {
          "internalType": "uint256",
          "name": "_index",
          "type": "uint256"
        },
        {
          "internalType": "uint256",
          "name": "_newSalary",
          "type": "uint256"
        }
      ],
      "name": "updateEmployeeSalary",
      "outputs": [],
      "stateMutability": "nonpayable",
      "type": "function"
    }
  ],
  "bytecode": "0x60806040523480156200001157600080fd5b50604051620030813803806200308183398181016040528101906200003791906200012a565b33600260006101000a81548173ffffffffffffffffffffffffffffffffffffffff021916908373ffffffffffffffffffffffffffffffffffffffff16021790555080600360006101000a81548173ffffffffffffffffffffffffffffffffffffffff021916908373ffffffffffffffffffffffffffffffffffffffff160217905550506200015c565b600080fd5b600073ffffffffffffffffffffffffffffffffffffffff82169050919050565b6000620000f282620000c5565b9050919050565b6200010481620000e5565b81146200011057600080fd5b50565b6000815190506200012481620000f9565b92915050565b600060208284031215620001435762000142620000c0565b5b6000620001538482850162000113565b91505092915050565b612f15806200016c6000396000f3fe6080604052600436106100a65760003560e01c8063a08a1b9911610064578063a08a1b99146101a7578063c2a63e3b146101b1578063c3b2d07a146101dc578063d108177a1461021f578063e3c17f7c14610248578063f6757cff14610271576100a6565b806213eb4b146100ab578063030a885a146100e8578063233d98d3146101115780634abefa361461013a5780634b147bbe1461016557806384ab30a51461017c575b600080fd5b3480156100b757600080fd5b506100d260048036038101906100cd9190611f05565b6102b3565b6040516100df9190611f4d565b60405180910390f35b3480156100f457600080fd5b5061010f600480360381019061010a9190611f9e565b6102d3565b005b34801561011d57600080fd5b5061013860048036038101906101339190611fcb565b61086e565b005b34801561014657600080fd5b5061014f61096b565b60405161015c9190612230565b60405180910390f35b34801561017157600080fd5b5061017a610bfc565b005b34801561018857600080fd5b50610191610c9c565b60405161019e9190612261565b60405180910390f35b6101af610ca8565b005b3480156101bd57600080fd5b506101c66112c5565b6040516101d39190612261565b60405180910390f35b3480156101e857600080fd5b5061020360048036038101906101fe9190611f9e565b611362565b60405161021697969594939291906122d5565b60405180910390f35b34801561022b57600080fd5b5061024660048036038101906102419190611f05565b6114e4565b005b34801561025457600080fd5b5061026f600480360381019061026a91906124b3565b6117b9565b005b34801561027d57600080fd5b5061029860048036038101906102939190611f9e565b611aa8565b6040516102aa96959493929190612561565b60405180910390f35b60046020528060005260406000206000915054906101000a900460ff1681565b60004290506000600183815481106102ee576102ed6125d0565b5b9060005260206000209060070201600501548261030b919061262e565b9050600060018481548110610323576103226125d0565b5b906000526020600020906007020160040154826103409190612662565b90508260018581548110610357576103566125d0565b5b906000526020600020906007020160050181905550600360009054906101000a900473ffffffffffffffffffffffffffffffffffffffff1673ffffffffffffffffffffffffffffffffffffffff1663a9059cbb600186815481106103be576103bd6125d0565b5b906000526020600020906007020160010160009054906101000a900473ffffffffffffffffffffffffffffffffffffffff1683600360009054906101000a900473ffffffffffffffffffffffffffffffffffffffff1673ffffffffffffffffffffffffffffffffffffffff166370a08231306040518263ffffffff1660e01b815260040161044c91906126a4565b602060405180830381865afa158015610469573d6000803e3d6000fd5b505050506040513d601f19601f8201168201806040525081019061048d91906126d4565b610497919061262e565b6040518363ffffffff1660e01b81526004016104b4929190612760565b6020604051808303816000875af11580156104d3573d6000803e3d6000fd5b505050506040513d601f19601f820116820180604052508101906104f791906127b5565b5080600360009054906101000a900473ffffffffffffffffffffffffffffffffffffffff1673ffffffffffffffffffffffffffffffffffffffff166370a082316001878154811061054b5761054a6125d0565b5b906000526020600020906007020160010160009054906101000a900473ffffffffffffffffffffffffffffffffffffffff166040518263ffffffff1660e01b815260040161059991906127e2565b602060405180830381865afa1580156105b6573d6000803e3d6000fd5b505050506040513d601f19601f820116820180604052508101906105da91906126d4565b6105e491906127fd565b600185815481106105f8576105f76125d0565b5b9060005260206000209060070201600601819055507f9f2f6d4fc9e178c2dafbe4f5f35b38110580e797bc11670abb1f945d2fd0a3598160405161063c9190612261565b60405180910390a1600360009054906101000a900473ffffffffffffffffffffffffffffffffffffffff1673ffffffffffffffffffffffffffffffffffffffff1663a9059cbb3383600360009054906101000a900473ffffffffffffffffffffffffffffffffffffffff1673ffffffffffffffffffffffffffffffffffffffff166370a08231306040518263ffffffff1660e01b81526004016106df91906126a4565b602060405180830381865afa1580156106fc573d6000803e3d6000fd5b505050506040513d601f19601f8201168201806040525081019061072091906126d4565b61072a919061262e565b6040518363ffffffff1660e01b8152600401610747929190612760565b6020604051808303816000875af1158015610766573d6000803e3d6000fd5b505050506040513d601f19601f8201168201806040525081019061078a91906127b5565b507f9f2f6d4fc9e178c2dafbe4f5f35b38110580e797bc11670abb1f945d2fd0a35981600360009054906101000a900473ffffffffffffffffffffffffffffffffffffffff1673ffffffffffffffffffffffffffffffffffffffff166370a08231306040518263ffffffff1660e01b815260040161080891906126a4565b602060405180830381865afa158015610825573d6000803e3d6000fd5b505050506040513d601f19601f8201168201806040525081019061084991906126d4565b610853919061262e565b6040516108609190612261565b60405180910390a150505050565b600260009054906101000a900473ffffffffffffffffffffffffffffffffffffffff1673ffffffffffffffffffffffffffffffffffffffff163373ffffffffffffffffffffffffffffffffffffffff16146108fe576040517f08c379a00000000000000000000000000000000000000000000000000000000081526004016108f59061287d565b60405180910390fd5b600060018381548110610914576109136125d0565b5b906000526020600020906007020190508181600401819055507f04e209d9ad90cb3a3ae0a53eae84a3c30d4980cd186407ab001685937104b029838360405161095e92919061289d565b60405180910390a1505050565b6060600260009054906101000a900473ffffffffffffffffffffffffffffffffffffffff1673ffffffffffffffffffffffffffffffffffffffff163373ffffffffffffffffffffffffffffffffffffffff16146109fd576040517f08c379a00000000000000000000000000000000000000000000000000000000081526004016109f49061287d565b60405180910390fd5b6001805480602002602001604051908101604052809291908181526020016000905b82821015610bf357838290600052602060002090600702016040518060e0016040529081600082015481526020016001820160009054906101000a900473ffffffffffffffffffffffffffffffffffffffff1673ffffffffffffffffffffffffffffffffffffffff1673ffffffffffffffffffffffffffffffffffffffff168152602001600282018054610ab2906128f5565b80601f0160208091040260200160405190810160405280929190818152602001828054610ade906128f5565b8015610b2b5780601f10610b0057610100808354040283529160200191610b2b565b820191906000526020600020905b815481529060010190602001808311610b0e57829003601f168201915b50505050508152602001600382018054610b44906128f5565b80601f0160208091040260200160405190810160405280929190818152602001828054610b70906128f5565b8015610bbd5780601f10610b9257610100808354040283529160200191610bbd565b820191906000526020600020905b815481529060010190602001808311610ba057829003601f168201915b50505050508152602001600482015481526020016005820154815260200160068201548152505081526020019060010190610a1f565b50505050905090565b600260009054906101000a900473ffffffffffffffffffffffffffffffffffffffff1673ffffffffffffffffffffffffffffffffffffffff163373ffffffffffffffffffffffffffffffffffffffff1614610c8c576040517f08c379a0000000000000000000000000000000000000000000000000000000008152600401610c839061287d565b60405180910390fd5b60016000610c9a9190611d94565b565b60008060000154905081565b600260009054906101000a900473ffffffffffffffffffffffffffffffffffffffff1673ffffffffffffffffffffffffffffffffffffffff163373ffffffffffffffffffffffffffffffffffffffff1614610d38576040517f08c379a0000000000000000000000000000000000000000000000000000000008152600401610d2f9061287d565b60405180910390fd5b6000600360009054906101000a900473ffffffffffffffffffffffffffffffffffffffff1673ffffffffffffffffffffffffffffffffffffffff166370a08231306040518263ffffffff1660e01b8152600401610d9591906126a4565b602060405180830381865afa158015610db2573d6000803e3d6000fd5b505050506040513d601f19601f82011682018060405250810190610dd691906126d4565b03610e16576040517f08c379a0000000000000000000000000000000000000000000000000000000008152600401610e0d90612972565b60405180910390fd5b60008042905060005b60018054905081101561113c57600060018281548110610e4257610e416125d0565b5b90600052602060002090600702019050600081600501546103e885610e6791906129c1565b610e71919061262e565b90506000610e1082610e8391906129c1565b90506000836004015482610e979190612662565b90508584600501819055508087610eae91906127fd565b9650600360009054906101000a900473ffffffffffffffffffffffffffffffffffffffff1673ffffffffffffffffffffffffffffffffffffffff1663a9059cbb8560010160009054906101000a900473ffffffffffffffffffffffffffffffffffffffff1683600360009054906101000a900473ffffffffffffffffffffffffffffffffffffffff1673ffffffffffffffffffffffffffffffffffffffff166370a08231306040518263ffffffff1660e01b8152600401610f6f91906126a4565b602060405180830381865afa158015610f8c573d6000803e3d6000fd5b505050506040513d601f19601f82011682018060405250810190610fb091906126d4565b610fba919061262e565b6040518363ffffffff1660e01b8152600401610fd7929190612760565b6020604051808303816000875af1158015610ff6573d6000803e3d6000fd5b505050506040513d601f19601f8201168201806040525081019061101a91906127b5565b5080600360009054906101000a900473ffffffffffffffffffffffffffffffffffffffff1673ffffffffffffffffffffffffffffffffffffffff166370a082318660010160009054906101000a900473ffffffffffffffffffffffffffffffffffffffff166040518263ffffffff1660e01b815260040161109b91906127e2565b602060405180830381865afa1580156110b8573d6000803e3d6000fd5b505050506040513d601f19601f820116820180604052508101906110dc91906126d4565b6110e691906127fd565b84600601819055507f9f2f6d4fc9e178c2dafbe4f5f35b38110580e797bc11670abb1f945d2fd0a3598160405161111d9190612261565b60405180910390a1505050508080611134906129f2565b915050610e1f565b50600082600360009054906101000a900473ffffffffffffffffffffffffffffffffffffffff1673ffffffffffffffffffffffffffffffffffffffff166370a08231306040518263ffffffff1660e01b815260040161119b91906126a4565b602060405180830381865afa1580156111b8573d6000803e3d6000fd5b505050506040513d601f19601f820116820180604052508101906111dc91906126d4565b6111e6919061262e565b9050600360009054906101000a900473ffffffffffffffffffffffffffffffffffffffff1673ffffffffffffffffffffffffffffffffffffffff1663a9059cbb33836040518363ffffffff1660e01b8152600401611245929190612a3a565b6020604051808303816000875af1158015611264573d6000803e3d6000fd5b505050506040513d601f19601f8201168201806040525081019061128891906127b5565b507f9f2f6d4fc9e178c2dafbe4f5f35b38110580e797bc11670abb1f945d2fd0a359816040516112b89190612261565b60405180910390a1505050565b6000600260009054906101000a900473ffffffffffffffffffffffffffffffffffffffff1673ffffffffffffffffffffffffffffffffffffffff163373ffffffffffffffffffffffffffffffffffffffff1614611357576040517f08c379a000000000000000000000000000000000000000000000000000000000815260040161134e9061287d565b60405180910390fd5b600180549050905090565b6001818154811061137257600080fd5b90600052602060002090600702016000915090508060000154908060010160009054906101000a900473ffffffffffffffffffffffffffffffffffffffff16908060020180546113c1906128f5565b80601f01602080910402602001604051908101604052809291908181526020018280546113ed906128f5565b801561143a5780601f1061140f5761010080835404028352916020019161143a565b820191906000526020600020905b81548152906001019060200180831161141d57829003601f168201915b50505050509080600301805461144f906128f5565b80601f016020809104026020016040519081016040528092919081815260200182805461147b906128f5565b80156114c85780601f1061149d576101008083540402835291602001916114c8565b820191906000526020600020905b8154815290600101906020018083116114ab57829003601f168201915b5050505050908060040154908060050154908060060154905087565b600260009054906101000a900473ffffffffffffffffffffffffffffffffffffffff1673ffffffffffffffffffffffffffffffffffffffff163373ffffffffffffffffffffffffffffffffffffffff1614611574576040517f08c379a000000000000000000000000000000000000000000000000000000000815260040161156b9061287d565b60405180910390fd5b60005b6001805490508110156117b5578173ffffffffffffffffffffffffffffffffffffffff16600182815481106115af576115ae6125d0565b5b906000526020600020906007020160010160009054906101000a900473ffffffffffffffffffffffffffffffffffffffff1673ffffffffffffffffffffffffffffffffffffffff16036117a257600180808054905061160e919061262e565b8154811061161f5761161e6125d0565b5b906000526020600020906007020160018281548110611641576116406125d0565b5b9060005260206000209060070201600082015481600001556001820160009054906101000a900473ffffffffffffffffffffffffffffffffffffffff168160010160006101000a81548173ffffffffffffffffffffffffffffffffffffffff021916908373ffffffffffffffffffffffffffffffffffffffff160217905550600282018160020190816116d49190612c1b565b50600382018160030190816116e99190612c1b565b50600482015481600401556005820154816005015560068201548160060155905050600180548061171d5761171c612d03565b5b60019003818190600052602060002090600702016000808201600090556001820160006101000a81549073ffffffffffffffffffffffffffffffffffffffff02191690556002820160006117719190611db8565b6003820160006117819190611db8565b600482016000905560058201600090556006820160009055505090556117b5565b80806117ad906129f2565b915050611577565b5050565b600260009054906101000a900473ffffffffffffffffffffffffffffffffffffffff1673ffffffffffffffffffffffffffffffffffffffff163373ffffffffffffffffffffffffffffffffffffffff1614611849576040517f08c379a00000000000000000000000000000000000000000000000000000000081526004016118409061287d565b60405180910390fd5b60011515600460008673ffffffffffffffffffffffffffffffffffffffff1673ffffffffffffffffffffffffffffffffffffffff16815260200190815260200160002060009054906101000a900460ff161515036118dc576040517f08c379a00000000000000000000000000000000000000000000000000000000081526004016118d390612d7e565b60405180910390fd5b6118e66000611d70565b60006118f26000611d86565b9050600060016040518060e001604052808481526020018873ffffffffffffffffffffffffffffffffffffffff1681526020018781526020018681526020018581526020014281526020018381525090806001815401808255809150506001900390600052602060002090600702016000909190919091506000820151816000015560208201518160010160006101000a81548173ffffffffffffffffffffffffffffffffffffffff021916908373ffffffffffffffffffffffffffffffffffffffff16021790555060408201518160020190816119d09190612d9e565b5060608201518160030190816119e69190612d9e565b506080820151816004015560a0820151816005015560c0820151816006015550506001600460008873ffffffffffffffffffffffffffffffffffffffff1673ffffffffffffffffffffffffffffffffffffffff16815260200190815260200160002060006101000a81548160ff0219169083151502179055507fa0ceb3fc9163110b2b8436695e806ebb9369410a91f8c1a526a9fc37ca9f9fba828787878742604051611a9896959493929190612e70565b60405180910390a1505050505050565b600080606080600080600260009054906101000a900473ffffffffffffffffffffffffffffffffffffffff1673ffffffffffffffffffffffffffffffffffffffff163373ffffffffffffffffffffffffffffffffffffffff1614611b41576040517f08c379a0000000000000000000000000000000000000000000000000000000008152600401611b389061287d565b60405180910390fd5b60018781548110611b5557611b546125d0565b5b90600052602060002090600702016000015460018881548110611b7b57611b7a6125d0565b5b906000526020600020906007020160010160009054906101000a900473ffffffffffffffffffffffffffffffffffffffff1660018981548110611bc157611bc06125d0565b5b906000526020600020906007020160020160018a81548110611be657611be56125d0565b5b906000526020600020906007020160030160018b81548110611c0b57611c0a6125d0565b5b90600052602060002090600702016004015460018c81548110611c3157611c306125d0565b5b906000526020600020906007020160050154838054611c4f906128f5565b80601f0160208091040260200160405190810160405280929190818152602001828054611c7b906128f5565b8015611cc85780601f10611c9d57610100808354040283529160200191611cc8565b820191906000526020600020905b815481529060010190602001808311611cab57829003601f168201915b50505050509350828054611cdb906128f5565b80601f0160208091040260200160405190810160405280929190818152602001828054611d07906128f5565b8015611d545780601f10611d2957610100808354040283529160200191611d54565b820191906000526020600020905b815481529060010190602001808311611d3757829003601f168201915b5050505050925095509550955095509550955091939550919395565b6001816000016000828254019250508190555050565b600081600001549050919050565b5080546000825560070290600052602060002090810190611db59190611df8565b50565b508054611dc4906128f5565b6000825580601f10611dd65750611df5565b601f016020900490600052602060002090810190611df49190611e76565b5b50565b5b80821115611e72576000808201600090556001820160006101000a81549073ffffffffffffffffffffffffffffffffffffffff0219169055600282016000611e419190611db8565b600382016000611e519190611db8565b60048201600090556005820160009055600682016000905550600701611df9565b5090565b5b80821115611e8f576000816000905550600101611e77565b5090565b6000604051905090565b600080fd5b600080fd5b600073ffffffffffffffffffffffffffffffffffffffff82169050919050565b6000611ed282611ea7565b9050919050565b611ee281611ec7565b8114611eed57600080fd5b50565b600081359050611eff81611ed9565b92915050565b600060208284031215611f1b57611f1a611e9d565b5b6000611f2984828501611ef0565b91505092915050565b60008115159050919050565b611f4781611f32565b82525050565b6000602082019050611f626000830184611f3e565b92915050565b6000819050919050565b611f7b81611f68565b8114611f8657600080fd5b50565b600081359050611f9881611f72565b92915050565b600060208284031215611fb457611fb3611e9d565b5b6000611fc284828501611f89565b91505092915050565b60008060408385031215611fe257611fe1611e9d565b5b6000611ff085828601611f89565b925050602061200185828601611f89565b9150509250929050565b600081519050919050565b600082825260208201905092915050565b6000819050602082019050919050565b61204081611f68565b82525050565b600061205182611ea7565b9050919050565b61206181612046565b82525050565b600081519050919050565b600082825260208201905092915050565b60005b838110156120a1578082015181840152602081019050612086565b60008484015250505050565b6000601f19601f8301169050919050565b60006120c982612067565b6120d38185612072565b93506120e3818560208601612083565b6120ec816120ad565b840191505092915050565b600060e08301600083015161210f6000860182612037565b5060208301516121226020860182612058565b506040830151848203604086015261213a82826120be565b9150506060830151848203606086015261215482826120be565b91505060808301516121696080860182612037565b5060a083015161217c60a0860182612037565b5060c083015161218f60c0860182612037565b508091505092915050565b60006121a683836120f7565b905092915050565b6000602082019050919050565b60006121c68261200b565b6121d08185612016565b9350836020820285016121e285612027565b8060005b8581101561221e57848403895281516121ff858261219a565b945061220a836121ae565b925060208a019950506001810190506121e6565b50829750879550505050505092915050565b6000602082019050818103600083015261224a81846121bb565b905092915050565b61225b81611f68565b82525050565b60006020820190506122766000830184612252565b92915050565b61228581612046565b82525050565b600082825260208201905092915050565b60006122a782612067565b6122b1818561228b565b93506122c1818560208601612083565b6122ca816120ad565b840191505092915050565b600060e0820190506122ea600083018a612252565b6122f7602083018961227c565b8181036040830152612309818861229c565b9050818103606083015261231d818761229c565b905061232c6080830186612252565b61233960a0830185612252565b61234660c0830184612252565b98975050505050505050565b61235b81612046565b811461236657600080fd5b50565b60008135905061237881612352565b92915050565b600080fd5b600080fd5b7f4e487b7100000000000000000000000000000000000000000000000000000000600052604160045260246000fd5b6123c0826120ad565b810181811067ffffffffffffffff821117156123df576123de612388565b5b80604052505050565b60006123f2611e93565b90506123fe82826123b7565b919050565b600067ffffffffffffffff82111561241e5761241d612388565b5b612427826120ad565b9050602081019050919050565b82818337600083830152505050565b600061245661245184612403565b6123e8565b90508281526020810184848401111561247257612471612383565b5b61247d848285612434565b509392505050565b600082601f83011261249a5761249961237e565b5b81356124aa848260208601612443565b91505092915050565b600080600080608085870312156124cd576124cc611e9d565b5b60006124db87828801612369565b945050602085013567ffffffffffffffff8111156124fc576124fb611ea2565b5b61250887828801612485565b935050604085013567ffffffffffffffff81111561252957612528611ea2565b5b61253587828801612485565b925050606061254687828801611f89565b91505092959194509250565b61255b81611ec7565b82525050565b600060c0820190506125766000830189612252565b6125836020830188612552565b8181036040830152612595818761229c565b905081810360608301526125a9818661229c565b90506125b86080830185612252565b6125c560a0830184612252565b979650505050505050565b7f4e487b7100000000000000000000000000000000000000000000000000000000600052603260045260246000fd5b7f4e487b7100000000000000000000000000000000000000000000000000000000600052601160045260246000fd5b600061263982611f68565b915061264483611f68565b925082820390508181111561265c5761265b6125ff565b5b92915050565b600061266d82611f68565b915061267883611f68565b925082820261268681611f68565b9150828204841483151761269d5761269c6125ff565b5b5092915050565b60006020820190506126b96000830184612552565b92915050565b6000815190506126ce81611f72565b92915050565b6000602082840312156126ea576126e9611e9d565b5b60006126f8848285016126bf565b91505092915050565b6000819050919050565b600061272661272161271c84611ea7565b612701565b611ea7565b9050919050565b60006127388261270b565b9050919050565b600061274a8261272d565b9050919050565b61275a8161273f565b82525050565b60006040820190506127756000830185612751565b6127826020830184612252565b9392505050565b61279281611f32565b811461279d57600080fd5b50565b6000815190506127af81612789565b92915050565b6000602082840312156127cb576127ca611e9d565b5b60006127d9848285016127a0565b91505092915050565b60006020820190506127f76000830184612751565b92915050565b600061280882611f68565b915061281383611f68565b925082820190508082111561282b5761282a6125ff565b5b92915050565b7f596f7520617265206e6f742074686520506179726f6c6c204d616e6167657200600082015250565b6000612867601f8361228b565b915061287282612831565b602082019050919050565b600060208201905081810360008301526128968161285a565b9050919050565b60006040820190506128b26000830185612252565b6128bf6020830184612252565b9392505050565b7f4e487b7100000000000000000000000000000000000000000000000000000000600052602260045260246000fd5b6000600282049050600182168061290d57607f821691505b6020821081036129205761291f6128c6565b5b50919050565b7f596f7520646f6e7420686176652074686520746f6b656e000000000000000000600082015250565b600061295c60178361228b565b915061296782612926565b602082019050919050565b6000602082019050818103600083015261298b8161294f565b9050919050565b7f4e487b7100000000000000000000000000000000000000000000000000000000600052601260045260246000fd5b60006129cc82611f68565b91506129d783611f68565b9250826129e7576129e6612992565b5b828204905092915050565b60006129fd82611f68565b91507fffffffffffffffffffffffffffffffffffffffffffffffffffffffffffffffff8203612a2f57612a2e6125ff565b5b600182019050919050565b6000604082019050612a4f6000830185612552565b612a5c6020830184612252565b9392505050565b600081549050612a72816128f5565b9050919050565b60008190508160005260206000209050919050565b60006020601f8301049050919050565b600082821b905092915050565b600060088302612adb7fffffffffffffffffffffffffffffffffffffffffffffffffffffffffffffffff82612a9e565b612ae58683612a9e565b95508019841693508086168417925050509392505050565b6000612b18612b13612b0e84611f68565b612701565b611f68565b9050919050565b6000819050919050565b612b3283612afd565b612b46612b3e82612b1f565b848454612aab565b825550505050565b600090565b612b5b612b4e565b612b66818484612b29565b505050565b5b81811015612b8a57612b7f600082612b53565b600181019050612b6c565b5050565b601f821115612bcf57612ba081612a79565b612ba984612a8e565b81016020851015612bb8578190505b612bcc612bc485612a8e565b830182612b6b565b50505b505050565b600082821c905092915050565b6000612bf260001984600802612bd4565b1980831691505092915050565b6000612c0b8383612be1565b9150826002028217905092915050565b818103612c29575050612d01565b612c3282612a63565b67ffffffffffffffff811115612c4b57612c4a612388565b5b612c5582546128f5565b612c60828285612b8e565b6000601f831160018114612c8f5760008415612c7d578287015490505b612c878582612bff565b865550612cfa565b601f198416612c9d87612a79565b9650612ca886612a79565b60005b82811015612cd057848901548255600182019150600185019450602081019050612cab565b86831015612ced5784890154612ce9601f891682612be1565b8355505b6001600288020188555050505b5050505050505b565b7f4e487b7100000000000000000000000000000000000000000000000000000000600052603160045260246000fd5b7f456d706c6f79656520616c726561647920616464656400000000000000000000600082015250565b6000612d6860168361228b565b9150612d7382612d32565b602082019050919050565b60006020820190508181036000830152612d9781612d5b565b9050919050565b612da782612067565b67ffffffffffffffff811115612dc057612dbf612388565b5b612dca82546128f5565b612dd5828285612b8e565b600060209050601f831160018114612e085760008415612df6578287015190505b612e008582612bff565b865550612e68565b601f198416612e1686612a79565b60005b82811015612e3e57848901518255600182019150602085019450602081019050612e19565b86831015612e5b5784890151612e57601f891682612be1565b8355505b6001600288020188555050505b505050505050565b600060c082019050612e856000830189612252565b612e926020830188612751565b8181036040830152612ea4818761229c565b90508181036060830152612eb8818661229c565b9050612ec76080830185612252565b612ed460a0830184612252565b97965050505050505056fea2646970667358221220b9162f59b74b2f3283aa40f1015e67d0d7d73ad9c2d053e08dea74ec24597c2d64736f6c63430008110033",
  "linkReferences": {},
  "deployedLinkReferences": {}
}